:100000000C94DE000C9406010C9406010C9406017D
:100010000C9406010C9406010C9406010C94060144
:100020000C9406010C9406010C942B030C949D0374
:100030000C9406010C9406010C9406010C94060124
:100040000C9406010C94DB050C9406010C9406013B
:100050000C9406010C9406010C9406010C94F10713
:100060000C9406010C9406010C9406010C940601F4
:100070000C9406010C9406010C9406010C940601E4
:100080000C9406010C9406010C9406010C940601D4
:100090000C9406010C9406010C9406010C940601C4
:1000A0000C9406010C9406010C940601B807BB07DA
:1000B000AA07AE07B207DC07DC07DC07BF07C307E8
:1000C000C707CD07D107DC07D707080B00020202DC
:1000D00001000904000001020200000524001001D3
:1000E0000524010101042402060524060001070578
:1000F000810310004009040100020A000000070506
:1001000002024000000705830240000004030904C6
:1001100012010002EF02014041233680000101027A
:10012000030141726475696E6F204C4C430041724B
:100130006475696E6F204C656F6E6172646F00004C
:1001400000000200090F0000030401000C00000081
:10015000000000000000000000000000000000009F
:100160000000250028002B002E00310000000000B8
:10017000240027002A002D00300004040404040396
:100180000405020202020403020202020606060637
:10019000060604040202020404040802011040805E
:1001A000401020408040800802040180402010025E
:1001B0000110801020404020B90AB30A11241FBE4C
:1001C000CFEFDAE0DEBFCDBF11E0A0E0B1E0EEEFAF
:1001D000FBE102C005900D92A033B107D9F721E0F1
:1001E000A0E3B1E001C01D92A83DB207E1F710E025
:1001F000CDEDD0E004C02197FE010E94F00BCC3D74
:10020000D107C9F70E943B080C94F20D0C94000032
:100210000895409133015091340120913101309182
:10022000320142175307B4F49091E8009570E1F35E
:100230009091E80092FD19C08093F1008091330104
:100240009091340101968F739927892B19F48EEFC1
:100250008093E8008091330190913401019690934E
:1002600034018093330181E0089580E00895DF92A6
:10027000EF92FF920F931F93CF93DF93D82EF92E17
:10028000E42E062F10E0C8010196880F0E94090194
:1002900083E00E940901CD2DDF2D0C0F1D1FC0171B
:1002A000D10789F0E7FE03C0FE01849101C0888177
:1002B0000E940901F82E80E00E9409018F212196F9
:1002C0008111EDCF01C081E0DF91CF911F910F919E
:1002D000FF90EF90DF900895DF92EF92FF920F93DF
:1002E0001F93CF93DF93D82E8A017B01E40EF51E76
:1002F000EB01CE15DF0571F0D7FE03C0FE0184913E
:1003000001C088810E94090121968111F2CF8FEFEF
:100310009FEF01C0C801DF91CF911F910F91FF9016
:10032000EF90DF900895615030F02091F100FC01D2
:1003300020830196F8CF289884E680933F010895A2
:10034000CF92DF92EF92FF920F931F93CF93DF93A1
:100350006C017A018B01C0E0D0E0CE15DF0581F0A1
:10036000D8016D918D01D601ED91FC910190F08144
:10037000E02DC6010995892B11F02196EECF7E0163
:10038000C701DF91CF911F910F91FF90EF90DF9008
:10039000CF900895CF93DF931F92CDB7DEB76983D7
:1003A000DC01ED91FC910280F381E02D41E050E011
:1003B000BE016F5F7F4F09950F90DF91CF91089538
:1003C00083E08093E9008091F200882319F08AE3AA
:1003D0008093E8000895FC018485958597FD0BC006
:1003E0009FB7F89482E08093E9008091F2009FBF6C
:1003F00090E0019608959FB7F89482E08093E90019
:100400008091F2009FBF90E0089580E090E0089511
:100410000E94DD0D0F931F93CF93DF931F92CDB7F3
:10042000DEB782E0898342E450E06AEC70E080E865
:100430000E946C010E947907DC0112960D911C91BB
:1004400013970115110589F0D801ED91FC910280F7
:10045000F381E02DBE016F5F7F4FC801099597FDC5
:1004600004C0F80100851185ECCF89810F90DF91E0
:10047000CF911F910F9108958F929F92AF92BF924B
:10048000CF92DF92EF92FF920F931F93CF93DF9360
:100490006C017B018A0180910B01882309F458C00B
:1004A00080914001882309F453C08091370180FF77
:1004B00005C08091E00082608093E000E801B12CEB
:1004C0008AEFA82E93E0892E2AE3922E209711F42A
:1004D000BB20B9F10E944E07811106C0AA94AA2040
:1004E000B9F10E945F07F2CF282F30E0C217D3077F
:1004F0000CF48C2F9FB7F8948092E9002091E800CB
:1005000025FF1DC0282F30E0C21BD30BF7018150FF
:1005100020F041914093F100FACFE20EF31EBB2090
:1005200019F09092E8000AC08091E80085FD07C0AC
:100530009092E800BB24B394209709F0B12C9FBFA0
:10054000C5CF5D9884E6809336011016110644F0FD
:1005500081E090E0F6019383828380E090E001C027
:10056000C801DF91CF911F910F91FF90EF90DF9025
:10057000CF90BF90AF909F908F9008950E944E07AC
:1005800090E008950F931F93CF93DF931F92CDB701
:10059000DEB78C01FC018485958597FF0EC0CE01E6
:1005A00001960E94E006019719F4898190E002C04B
:1005B0008FEF9FEFF80195878487F80184859585F3
:1005C0000F90DF91CF911F910F910895CF93DF93FB
:1005D0001F92CDB7DEB7FC018485958597FD05C0D8
:1005E0002FEF3FEF358724870BC0CE0101960E9485
:1005F000E006019719F4898190E002C08FEF9FEF28
:100600000F90DF91CF9108950F931F93CF93DF93B6
:10061000EC0188819981009729F02A813B81261776
:10062000370788F48B016F5F7F4F0E94170D00978B
:1006300061F0998388831B830A832C813D81232B5E
:1006400011F4FC01108281E001C080E0DF91CF91C4
:100650001F910F9108951F920F920FB60F921124C0
:100660008F939F938091E1009091E100937F90930D
:10067000E10083FF0FC01092E90091E09093EB003E
:100680001092EC0092E39093ED001092400198E0FC
:100690009093F00082FF20C093E09093E900909146
:1006A000F200992319F09AE39093E80090913601B3
:1006B000992339F090913601915090933601992306
:1006C00089F190913F01992339F090913F01915028
:1006D00090933F01992341F184FF10C08091E20083
:1006E0008E7E81608093E2008091E1008F7E809316
:1006F000E100809137018E7E806111C080FF16C0BD
:100700008091E2008E7E80618093E2008091E10022
:100710008E7E8093E100809137018E7E8160809390
:10072000370104C05D9ACDCF289AD6CF9F918F9183
:100730000F900FBE0F901F9018951F920F920FB63B
:100740000F921124CF92DF92EF92FF920F931F939B
:100750002F933F934F935F936F937F938F939F93C9
:10076000AF93BF93EF93FF93CF93DF93CDB7DEB7F4
:100770006C97DEBFCDBF1092E9008091E80083FF47
:10078000FBC168E0CE0145960E94930182EF809301
:10079000E8008D8987FF05C09091E80090FFFCCFAD
:1007A00003C09EEF9093E800982F907609F0C6C0A2
:1007B0009E894F89588D2F89F88C91110CC08038F3
:1007C00029F4809138018093F10002C01092F10069
:1007D0001092F10045C1913051F4811141C1413075
:1007E000510509F03DC1809138018D7F0BC09330D8
:1007F00061F4811135C14130510509F031C1809159
:1008000038018260809338012BC1953049F4809182
:10081000E80080FFFCCF822F80688093E30020C136
:10082000963009F05EC00B8D1C8D22E01092E9001D
:100830001092340110923301F21232C01092320140
:10084000109231010E940A0299E0BE016F5F7F4F52
:10085000DB01E92F1D92EA95E9F79983FA8291E08D
:100860009E8390EA98879AEF99872091330130917F
:100870003401275F3F4F3C832B838D831092E90027
:100880001092340110923301109332010093310120
:1008900049E050E080E00E946C010E940A02E0C042
:1008A00010933201009331010E947907DC01129606
:1008B0000D911C9113970115110509F4BBC0D801C6
:1008C000ED91FC910480F581E02DBE016B5E7F4FC0
:1008D000C8010995009709F0C7C0F8010085118586
:1008E000EACF973009F445C1983021F481E0809334
:1008F000F100B6C0993009F0B3C0837009F039C176
:10090000E3E1F1E081E031E096E32081211109C0CB
:100910008EE78093EA001092EA008F89809340016D
:100920009FC08093E9003093EB0021912093EC006D
:100930009093ED008F5F873041F7EACF8B8D9C8DD0
:100940001092E90010923401109233019093320119
:1009500080933101898D811153C08E899D89913A8F
:1009600049F4813209F005C147E050E064E071E0EC
:1009700080E0BBC0913209F0FCC0833269F48F89FA
:10098000988DA0E0B0E08093000190930101A093C6
:100990000201B093030164C0803269F48091E800E1
:1009A00082FFFCCF67E084E091E00E9493018BEF2F
:1009B0008093E80055C0823209F052C08F8980933D
:1009C0000B01EEEFFFE7859194918B3F9C4D19F061
:1009D000E0E0F8E002C0EEEFFAE0809104019091CF
:1009E0000501A0910601B0910701803B9440A1054B
:1009F000B10509F09EC080910B0180FF79C099C0BC
:100A00000E947907FC01028113810115110509F487
:100A1000B0C0D801ED91FC910190F081E02DBE01B4
:100A20006B5E7F4FC801099581111AC0F8010085DE
:100A30001185EBCFF1E0FF1609F44EC0F3E0FF1291
:100A400098C08F89882309F44AC0823089F440E82D
:100A500060E18EE291E00E943701882309F489C0A9
:100A60008EEF8093E80088C018161906CCF381C079
:100A7000813029F440E86BE082E291E0ECCF8330F2
:100A800009F077C00E947907DC011296ED90FC9086
:100A900013978E010F5F1F4F6801E114F10479F085
:100AA000D701ED91FC910680F781E02DB801C701D7
:100AB0000995080F111DF701E084F184EECFD801EC
:100AC0001C92F60101900020E9F73197BF016C19E3
:100AD0007D0940E0C601BFCF60E171E002C06CE07B
:100AE00071E0FB01449150E080E80E946C01B8CFB6
:100AF000EE3F2AE0F20751F0808191818737A7E726
:100B00009A0721F09093FF0A8093FE0A87E797E700
:100B10009183808380916000809335019BE088E120
:100B20000FB6F894A895809360000FBE9093600074
:100B300097CF808191818737974709F091CFA8950A
:100B4000809160008861809360008091350180937E
:100B50006000EE3FBAE0FB0739F08091FE0A909109
:100B6000FF0A918380837CCF1092FF0A1092FE0AC5
:100B700077CF81E28093EB006C960FB6F894DEBFDE
:100B80000FBECDBFDF91CF91FF91EF91BF91AF919C
:100B90009F918F917F916F915F914F913F912F9195
:100BA0001F910F91FF90EF90DF90CF900F900FBEAD
:100BB0000F901F9018951F920F920FB60F9211244D
:100BC0002F933F934F935F936F937F938F939F9355
:100BD000AF93BF93EF93FF938091300187FF05C0E0
:100BE00010928500109284001BC020913001022ECB
:100BF000000C330B8091B50190E02817390784F47D
:100C000080913001082E000C990BFC01EE0FFF1FA4
:100C10008E0F9F1FFC01EF56FE4F808186FD15C091
:100C2000809130018F5F8093300120913001022E3E
:100C3000000C330B8091B50190E028173907C4F4FC
:100C4000809130018C3064F113C080913001082E06
:100C5000000C990BFC01EE0FFF1F8E0F9F1FFC0174
:100C6000EF56FE4F808160E08F730E948D07D8CFD2
:100C70008091840090918500049680349C4918F4FA
:100C800080E49CE905C080918400909185000496E1
:100C900090938900809388008FEF809330013BC050
:100CA000209184003091850080913001082E000C45
:100CB000990BFC01EE0FFF1F8E0F9F1FFC01EF56DB
:100CC000FE4F81819281820F931F909389008093C0
:100CD000880080913001082E000C990BFC01EE0F6A
:100CE000FF1F8E0F9F1FFC01EF56FE4F808186FF76
:100CF00012C080913001082E000C990BFC01EE0F00
:100D0000FF1F8E0F9F1FFC01EF56FE4F808161E099
:100D10008F730E948D07FF91EF91BF91AF919F91CB
:100D20008F917F916F915F914F913F912F910F9094
:100D30000FBE0F901F9018953FB7F8948091C00197
:100D40009091C101A091C201B091C30126B5A89BA9
:100D500005C02F3F19F00196A11DB11D3FBFBA2F4D
:100D6000A92F982F8827820F911DA11DB11DBC01AD
:100D7000CD0142E0660F771F881F991F4A95D1F772
:100D8000089590E0FC01E756FE4F2491FC01E658DF
:100D9000FE4F8491882399F090E0880F991FFC0101
:100DA000E459FE4FA591B491FC01E25AFE4F8591A2
:100DB00094918FB7F894EC91E22BEC938FBF089548
:100DC00020914001211103C08FEF9FEF08955FB77D
:100DD000F89422E02093E9002091F20030E012160E
:100DE000130614F421E030E0422FFC0184E6415068
:100DF00038F0289880933F019091F1009193F7CFBC
:100E00002115310521F08091F200882319F05FBF90
:100E1000C90108958BE68093E800F9CF2FB7F894C5
:100E20008091D0019091D101A091D201B091D301D4
:100E30002FBF8093490190934A01A0934B01B09337
:100E40004C0181E491E00E94E60297FF26C02FB793
:100E5000F8948091D0019091D101A091D201B091EC
:100E6000D3012FBF4091490150914A0160914B013C
:100E700070914C01841B950BA60BB70B409145015B
:100E80005091460160914701709148018417950780
:100E9000A607B707B0F28FEF9FEF08952FB7F8942A
:100EA00083E08093E9009091E800892F807295FF9C
:100EB00004C09091F20080E4891B2FBF0895CF9267
:100EC000DF92EF92FF920E949C066B017C010E94D0
:100ED0009C06DC01CB018C199D09AE09BF09883E37
:100EE0009340A105B10598F3FF90EF90DF90CF906C
:100EF00008958091C80181110DC082E08093C401E2
:100F000084E08093C5011092C7011092C60181E070
:100F10008093C80184EC91E00895362F90E0FC01A5
:100F2000E15CFE4F4491FC01E756FE4F2491FC0129
:100F3000E658FE4F8491882309F452C04423E1F11E
:100F400050E0FA013197EF30F105B0F5EA5AFF4F62
:100F50000C94F00B909180009F7707C090918000D7
:100F60009F7D03C090918000977F9093800024C064
:100F700094B59F7702C094B59F7D94BD1DC090919C
:100F800090009F7707C0909190009F7D03C0909143
:100F90009000977F909390000FC09091C0009F7732
:100FA00003C09091C0009F7D9093C00005C09091B8
:100FB000C200977F9093C200E82FF0E0EE0FFF1F72
:100FC000E25AFE4FA591B4919FB7F894311104C035
:100FD0008C912095282302C0EC912E2B2C939FBF3F
:100FE00008951F920F920FB60F9211242F933F93E3
:100FF0008F939F93AF93BF938091D0019091D10134
:10100000A091D201B091D3013091BF0123E0230F11
:101010002D3720F40196A11DB11D05C026E8230F30
:101020000296A11DB11D2093BF018093D001909322
:10103000D101A093D201B093D3018091C0019091CE
:10104000C101A091C201B091C3010196A11DB11DC2
:101050008093C0019093C101A093C201B093C301DA
:10106000BF91AF919F918F913F912F910F900FBEA4
:101070000F901F901895CF93DF93CDB7DEB72897C9
:101080000FB6F894DEBF0FBECDBF789484B58260F2
:1010900084BD84B5816084BD85B5826085BD85B51C
:1010A000816085BD80916E00816080936E0010929A
:1010B0008100809181008260809381008091810015
:1010C00081608093810080918000816080938000A6
:1010D0008091910082608093910080919100816065
:1010E0008093910080919000816080939000809126
:1010F000C10084608093C1008091C10082608093B0
:10110000C1008091C10081608093C1008091C300C3
:1011100081608093C3008091C00082608093C00092
:101120008091C20081608093C20080917A008460C7
:1011300080937A0080917A00826080937A00809117
:101140007A00816080937A0080917A008068809331
:101150007A0010924001109238011092370180916C
:10116000D70081608093D70080EA8093D80089B54A
:10117000806189BD89B5826089BD09B400FEFDCF5B
:101180000E945F078091D8008F7C80618093D80097
:101190008091E000807F8093E0008091E1008E7E6E
:1011A0008093E1008DE08093E200559A209A8FEFC2
:1011B0009FEF90934E0180934D018DE00E94C106F8
:1011C00083E580933E018091BC018C3008F050C0D3
:1011D00089E00E94C1068091BC01E82FF0E09F01E8
:1011E000220F331FE20FF31FEF56FE4F9081907CCA
:1011F000996090831092BD011092BE016CE00E9434
:10120000E40B4CE0849FB001112440E050E09B01CE
:10121000240F351FF901EE0FFF1F2E0F3F1FF9019D
:10122000EF56FE4F908196FD16C04F5F5F4F4C30DA
:10123000510569F781110FC01092800082E0809300
:1012400081001092850010928400B19A80916F0005
:10125000826080936F00E091BC01F0E0CF01880FC5
:10126000991FE80FF91FEF56FE4F8081806480833D
:10127000B8E8EB2EF12C18E5C12E12E0D12E04EBCC
:10128000402E512C612C712CA4E43A2E81E491E083
:101290000E94EB01181619060CF055C080913E0112
:1012A000833509F050C01A8219821C821B821E826B
:1012B0001D8260E070E0CE0101960E940403298146
:1012C0003A81811180C02115310519F0C9010E94B0
:1012D0008E0C1A8219821E821D821C821B820E9421
:1012E0000E0797FF78C08091B6019091B7010097E3
:1012F00009F08DC089819A819093B7018093B601DE
:101300008B819C819093B9018093B8018D819E81DE
:101310009093BB018093BA011A82198289819A81C4
:101320000E948E0C8091BA019091BB01892B09F427
:1013300075C0E091B601F091B701309709F46EC025
:10134000808180933E0180913E01833491F441E09D
:1013500050E06BE271E081E491E00E943C0242E0E7
:1013600050E06DE271E081E491E00E943C02309235
:101370003E0181E491E00E94EB0118161906DCF4AD
:1013800080913E018434B9F481E491E00E94E60248
:10139000E0913D018A3009F0C7C0F0E0E75CFE4F04
:1013A000108210923D01809139018134E1F561E0B4
:1013B0008DE00E948D0780E090E0892B09F466CFD4
:1013C0000E94000061CF1E821D826FE271E0C901A0
:1013D0000E94EB0D84CF8F8318860D811E810F5FD5
:1013E0001F4FB801CE0101960E940403882309F41F
:1013F00076CF29813A818D819E81BE01695F7F4FC1
:10140000820F931F0E94EB0D1E830D8368CF6981AD
:101410007A816115710509F093C002C080E091CF17
:101420000E948E0C67CF823411F460E0C1CF89E353
:1014300091E00E94240BDC01DC96A03252E0B5075B
:10144000DCF5B7FD06C0A53BB1052CF0A4EBB0E080
:1014500002C0A0E0B0E08091BD019701281B3109D6
:1014600087FD3395220F331F220F331F4901330F9E
:10147000AA08BB088091BE019601281B310987FD8F
:101480003395220F331F220F331FA901330F660B31
:10149000770B9A01AB01281939094A095B090E94A7
:1014A000740BA30192010E944A0BDA01C901880D55
:1014B000991DAA1DBB1DDC013091BC013C3008F018
:1014C0007ACF8091BD01A701481B510987FD539533
:1014D000440F551F440F551FA417B5078CF080917A
:1014E000BE01A601481B510987FD5395CA01880F0B
:1014F000991F880F991FAD018A179B070CF4AC0147
:10150000CA010297880F991F4FB7F894232F30E034
:10151000F901EE0FFF1F2E0F3F1FF901EF56FE4F8F
:10152000928381834FBF47CFE33008F044CF91E0EF
:101530009E0F90933D01F0E0E75CFE4F80833BCF30
:101540004091B8015091B9012D813E814217530756
:1015500008F466CF0E94EB0D8D819E819093BB01B4
:101560008093BA01DBCE8091B6019091B7010C94C3
:101570008E0C109244011092430188EE93E0A0E09B
:10158000B0E08093450190934601A0934701B0934A
:1015900048018DE191E090934201809341018FEFEA
:1015A0009FEF90934E0180934D018091B5018C3057
:1015B000A0F491E0980F9093B5018093BC0190E066
:1015C000FC01EE0FFF1F8E0F9F1FFC01EF56FE4F19
:1015D00088EB9BE09283818303C08FEF8093BC01F3
:1015E0001092B7011092B6011092B9011092B80191
:1015F0001092BB011092BA0160E070E086EB91E0BE
:101600000E9404032091B6013091B701811113C0EB
:101610002115310519F0C9010E948E0C1092B701F5
:101620001092B6011092BB011092BA011092B9014A
:101630001092B80108951092BB011092BA016FE2A6
:1016400071E0C9010C94EB0DFC0188279927E894FF
:1016500021912032E9F3293010F02E30C8F32B32DB
:1016600041F02D3239F4689404C00E94420B820F7D
:10167000911D219120532A30C0F31EF4909581953D
:101680009F4F08957AE0979F902D879F802D910D11
:1016900011240895052E97FB1EF400940E94610BFF
:1016A00057FD07D00E94B30B07FC03D04EF40C94F7
:1016B000610B50954095309521953F4F4F4F5F4FAF
:1016C000089590958095709561957F4F8F4F9F4FAE
:1016D00008950E94D50BA59F900DB49F900DA49FD7
:1016E000800D911D11240895B7FF0C94690B0E9481
:1016F000690B821B930B08952F923F924F925F923A
:101700006F927F928F929F92AF92BF92CF92DF9211
:10171000EF92FF920F931F93CF93DF93CDB7DEB776
:10172000CA1BDB0B0FB6F894DEBF0FBECDBF09940A
:101730002A88398848885F846E847D848C849B8461
:10174000AA84B984C884DF80EE80FD800C811B816F
:10175000AA81B981CE0FD11D0FB6F894DEBF0FBE9E
:10176000CDBFED010895A1E21A2EAA1BBB1BFD01FE
:101770000DC0AA1FBB1FEE1FFF1FA217B307E40770
:10178000F50720F0A21BB30BE40BF50B661F771FC8
:10179000881F991F1A9469F76095709580959095A8
:1017A0009B01AC01BD01CF010895A29FB001B39F81
:1017B000C001A39F700D811D1124911DB29F700D5A
:1017C000811D1124911D0895991B79E004C0991F72
:1017D000961708F0961B881F7A95C9F7809508958B
:1017E000EE0FFF1F0590F491E02D09940F931F93C6
:1017F000CF93DF938230910510F482E090E0E09186
:10180000D601F091D70120E030E0A0E0B0E03097C1
:1018100019F1408151810281138148175907C8F09D
:101820008417950769F4109731F012960C9312976C
:1018300013961C9327C00093D6011093D70122C0A2
:101840002115310519F04217530718F49A01BD010B
:10185000EF01DF01F801DBCF21153105F9F0281B7D
:10186000390B2430310580F48A819B816115710523
:1018700021F0FB019383828304C09093D70180936E
:10188000D601FE01329644C0FE01E20FF31F8193A0
:10189000919322503109398328833AC02091D40191
:1018A0003091D501232B41F420910E0130910F018D
:1018B0003093D5012093D40120910C0130910D017A
:1018C0002115310541F42DB73EB7409110015091DB
:1018D0001101241B350BE091D401F091D501E217E1
:1018E000F307A0F42E1B3F0B2817390778F0AC0143
:1018F0004E5F5F4F2417350748F04E0F5F1F509320
:10190000D5014093D4018193919302C0E0E0F0E0CF
:10191000CF01DF91CF911F910F910895CF93DF9366
:10192000009709F481C0FC01329713821282A091C2
:10193000D601B091D701109781F420813181820FB7
:10194000931F2091D4013091D5012817390751F503
:10195000F093D501E093D40167C0ED0120E030E0C1
:10196000CE17DF0740F44A815B819E014115510586
:10197000F1F0EA01F5CFD383C28340815181840F16
:10198000951FC817D90759F488819981840F951F2D
:101990000296918380838A819B8193838283211520
:1019A000310529F4F093D701E093D6013DC0E90158
:1019B000FB83EA8349915991C40FD51FEC17FD07AA
:1019C00061F480819181840F951F0296E9019983CA
:1019D0008883828193819B838A83E0E0F0E0129682
:1019E0008D919C911397009719F0FD01DC01F7CFC1
:1019F0008D919C9111979D012E5F3F4F820F931FF8
:101A00002091D4013091D5012817390769F4309716
:101A100029F41092D7011092D60102C013821282CB
:101A2000B093D501A093D401DF91CF910895A0E0A8
:101A3000B0E0EDE1FDE00C94800BEC01009721F4A7
:101A4000CB010E94F60BB4C0FC01E60FF71F9C010E
:101A500022503109E217F30708F4A8C0D9010D910B
:101A60001C91119706171707B0F00530110508F4FF
:101A70009BC0C80104978617970708F495C00250C9
:101A80001109061B170B019311936D937C93CF01E2
:101A90000E948E0C89C05B01A01AB10A4C01800E15
:101AA000911EA091D601B091D701612C712CE12C2F
:101AB000F12C109709F446C08D919C911197A815AF
:101AC000B905B1F56C0142E0C40ED11CCA14DB04A7
:101AD00078F14C018A189B08640142E0C40ED11CC5
:101AE0001296BC9012971396AC91B5E0CB16D10428
:101AF00040F0B282A38391828082D9016D937C935E
:101B000009C00E5F1F4F800F911FF90191838083E1
:101B1000EB2DFA2FE114F10431F0D7011396FC9369
:101B2000EE93129741C0F093D701E093D6013CC0E9
:101B30006816790608F43C017D0112960D90BC915F
:101B4000A02DB7CF8091D4019091D5018816990628
:101B5000E1F466167706C8F480910C0190910D01AE
:101B6000009741F48DB79EB740911001509111013B
:101B7000841B950BE817F907C8F4F093D501E0939F
:101B8000D401F901718360830FC0CB010E94F60B71
:101B90007C01009759F0A801BE010E94E20DCE0120
:101BA0000E948E0CC70104C0CE0102C080E090E00C
:101BB000CDB7DEB7EEE00C949C0B81E090E0F8949A
:101BC0000C94F20DFB01DC0102C001900D9241501A
:101BD0005040D8F70895FB01DC0101900D920020E0
:101BE000E1F7089510E0CDEDD0E004C0FE010E94C1
:0E1BF000F00B2196CE3DD107C9F7F894FFCF38
:101BFE00FFFFFFFF00E10000000000000000D80121
:101C0E00800000C1808100000000000000CA013C7D
:101C1E0002BE02E001EB01E602C20244000D0A0020
:00000001FF
